:200000000C94D3000C94FB000C94FB000C94FB000C94FB000C94FB000C94FB000C94FB0030
:200020000C94FB000C94FB000C94FB000C94FB000C94FB000C9488130C94FB000C94FB0048
:200040000C9469150C94FB000C9456130C9430130C94FB000C94FB000C94FB000C94FB008F
:200060000C94FB000C94FB007061737377640076657273696F6E2E74787400302E38393124
:200080002E3100456E7465722061646D696E697374726174696F6E2050494E3A2000F9FBA8
:2000A000F4F52A2A2A2041444D494E204D4F4445202A2A2A0043616D6572614B6579204497
:2000C0007269766572202D2032303139005B3F5D202D2068656C70005B6C5D6973742066B8
:2000E000696C65730A5B735D686F772066696C65203C6E756D6265723E005B635D68616E9B
:200100006765206672657175656E6379203C6E756D6265723E0A5B645D756D70206375721C
:2001200072656E74206672657175656E6379004E6963652C207472792120457272436F646A
:20014000653A2000666565343466363930623264383134383066306336323866363130357B
:200160006230356100456E7465722061646D696E6973747261746F722773207061737377D0
:200180006F72643A20006F0068004E6963652C207472792120457272436F64653A20007B05
:2001A00000440100981811241FBECFEFD8E0DEBFCDBF21E0ACE3B1E001C01D92AC3EB20765
:2001C000E1F711E0A0E0B1E0EEE9F4E302C005900D92AC33B107D9F710E0C3EDD0E004C026
:2001E0002197FE010E941119C23DD107C9F70E94B3150C944D1A0C940000CF92DF92EF9281
:20020000FF920F931F93CF93DF936C017A018B01C0E0D0E0CE15DF0581F0D8016D918D01C4
:20022000D601ED91FC910190F081E02DC6010995892B11F02196EECF7E01C701DF91CF9128
:200240001F910F91FF90EF90DF90CF900895089580E090E00895FC01538D448D252F30E0B9
:20026000842F90E0821B930B541710F0CF96089501970895FC01918D828D981761F0828D45
:20028000DF01A80FB11D5D968C91928D9F5F9F73928F90E008958FEF9FEF0895FC01918DC8
:2002A000828D981731F0828DE80FF11D858D90E008958FEF9FEF0895FC01918D228D892F01
:2002C00090E0805C9F4F821B91098F739927089582E491E00E945C0121E0892B09F420E0C6
:2002E000822F0895FC01848DDF01A80FB11DA35ABF4F2C91848D90E001968F739927848F88
:20030000A689B7892C93A089B1898C91837080648C93938D848D981306C00288F389E02D84
:2003200080818F7D80830895EF92FF920F931F93CF93DF93EC0181E0888F9B8D8C8D981385
:2003400005C0E889F989808185FD26C0F62E0B8D10E00F5F1F4F0F731127E02E8C8DE81219
:200360000CC00FB607FCFACFE889F989808185FFF5CFCE010E947201F1CF8B8DFE01E80F32
:20038000F11DE35AFF4FF0829FB7F8940B8FEA89FB89808180620AC09FB7F894EE89FF8951
:2003A0006083E889F98980818370806480839FBF81E090E0DF91CF911F910F91FF90EF902F
:2003C0000895CF93DF93EC01888D8823C9F0EA89FB89808185FD05C0A889B9898C9186FDF4
:2003E0000FC00FB607FCF5CF808185FFF2CFA889B9898C9185FFEDCFCE010E947201E7CFF2
:20040000DF91CF91089580E090E0892B29F00E94680181110C94000008952F923F924F9285
:200420005F926F927F928F929F92AF92BF92CF92DF92EF92FF920F931F93CF93DF93CDB745
:20044000DEB7C457D1090FB6F894DEBF0FBECDBFE5969FAF8EAFE597E3967FAF6EAFE3970B
:200460001A01DC0118964D905D906D907C901B9761964CAE5DAE6EAE7FAE61971C964D9085
:200480005D906D907C901F9749825A826B827C8250964D905D906D907C9053974D825E82CC
:2004A0006F82788654964D905D906D907C90579749865A866B867C86A85ABF4F6396BFAF89
:2004C000AEAF6397FC01E45AFF4F6596FFAFEEAF6597805A9F4F67969FAF8EAF6797E59631
:2004E000AEADBFADE597AC59BF4F6996BFAFAEAF6997E596EEADFFADE597E859FF4F6B960E
:20050000FFAFEEAF6B97E5968EAD9FADE59784599F4F6D969FAF8EAF6D97E596AEADBFAD71
:20052000E597A059BF4F6F96BFAFAEAF6F97E596EEADFFADE597EC58FF4FA196FFAFEEAF10
:20054000A197E5968EAD9FADE59788589F4FA3969FAF8EAFA397E596AEADBFADE597A4585F
:20056000BF4FA596BFAFAEAFA597E596EEADFFADE597E058FF4FA796FFAFEEAFA797E59626
:200580008EAD9FADE5978C579F4FA9969FAF8EAFA997E596AEADBFADE597A857BF4FAB9671
:2005A000BFAFAEAFAB97E596EEADFFADE597E457FF4FAD96FFAFEEAFAD97E5968EAD9FAD93
:2005C000E59780579F4FAF969FAF8EAFAF97E596AEADBFADE597AC56BF4FE196BFAFAEAFB4
:2005E000E197E396AEADBFADE3974D905D906D907C904D865E866F86788A6396EEADFFAD08
:20060000639740825182628273820D811E812F81388549845A846B847C8404251525262590
:20062000372569807A808B809C80062117212821392189849A84AB84BC84082519252A25FE
:200640003B2561968CAD9DADAEADBFAD619788589B45A549B8424D855E856F857889840F1C
:20066000951FA61FB71F080F191F2A1F3B1FD901C80147E0880F991FAA1FBB1F4A95D1F7D6
:2006800059E136952795179507955A95D1F7082B192B2A2B3B2B69817A818B819C81060F45
:2006A000171F281F391FE396AEADBFADE39714968D919D910D90BC91A02D898B9A8BAB8B8F
:2006C000BC8B6596EEADFFAD659780839183A283B383C980DA80EB80FC804D805E806F80FF
:2006E0007884C424D524E624F724C022D122E222F322C424D524E624F724D501C4018A5A85
:200700009844A843B74169887A888B889C88860D971DA81DB91DC80ED91EEA1EFB1ED70148
:20072000C6016CE0880F991FAA1FBB1F6A95D1F774E1F694E794D794C7947A95D1F7C82A04
:20074000D92AEA2AFB2AC00ED11EE21EF31EE396AEADBFADE39718968D909D90AD90BC9054
:200760001B978D8A9E8AAF8AB88E6796EEADFFAD679780829182A282B38249815A816B81C8
:200780007C8140275127622773274C215D216E217F2149805A806B807C8044255525662548
:2007A00077258D819E81AF81B88585529F48AF4DBB4D880D991DAA1DBB1D480F591F6A1FFF
:2007C0007B1FDB01CA01EFE0B695A79597958795EA95D1F7F1E1440F551F661F771FFA95B0
:2007E000D1F7482B592B6A2B7B2B4C0D5D1D6E1D7F1DE396AEADBFADE3971C966D907D908F
:200800008D909C901F97698E7A8E8B8E9C8E6996EEADFFAD6997608271828282938248011A
:2008200059018C249D24AE24BF2484229522A622B72280269126A226B32689819A81AB81EB
:20084000BC8182519143A244BE43498C5A8C6B8C7C8C840D951DA61DB71D880E991EAA1E24
:20086000BB1ED501C401EAE0B695A79597958795EA95D1F7F6E1880C991CAA1CBB1CFA95D8
:20088000D1F7882A992AAA2ABB2A840E951EA61EB71EE396AEADBFADE39750968D919D9198
:2008A0000D90BC91A02D8D8F9E8FAF8FB8A36B96EEADFFAD6B9780839183A283B38381550D
:2008C000904FA348BA40080F191F2A1F3B1FD701C60184279527A627B72788219921AA2183
:2008E000BB218C259D25AE25BF25080F191F2A1F3B1FD901C801E7E0880F991FAA1FBB1FA4
:20090000EA95D1F7F9E13695279517950795FA95D1F7082B192B2A2B3B2B080D191D2A1DCC
:200920003B1DE396AEADBFADE39754964D905D906D907C90579749A25AA26BA27CA26D96E5
:20094000EEADFFAD6D974082518262827382D301C201865D9943A847B84BC80ED91EEA1EC1
:20096000FB1EDB01CA0188259925AA25BB2580239123A223B32384279527A627B727C80EC3
:20098000D91EEA1EFB1ED701C601ECE0880F991FAA1FBB1FEA95D1F7F4E1F694E794D79456
:2009A000C794FA95D1F7C82AD92AEA2AFB2AC00ED11EE21EF31EE396AEADBFADE3975896E1
:2009C0004D905D906D907C905B974DA25EA26FA278A66F96EEADFFAD6F9740825182628269
:2009E0007382D301C2018D5E994BAF4CB745480F591F6A1F7B1FD501C40180279127A227F0
:200A0000B3278C219D21AE21BF2188259925AA25BB25480F591F6A1F7B1FDB01CA01EFE060
:200A2000B695A79597958795EA95D1F7F1E1440F551F661F771FFA95D1F7482B592B6A2B09
:200A40007B2B4C0D5D1D6E1D7F1DE396AEADBFADE3975C964D905D906D907C905F9749A692
:200A60005AA66BA67CA6A196EEADFFADA1974082518262827382D301C2018F5F9A46A94BC6
:200A8000B240880E991EAA1EBB1ED901C8018C259D25AE25BF2584239523A623B723802700
:200AA0009127A227B327880E991EAA1EBB1ED501C401EAE0B695A79597958795EA95D1F772
:200AC000F6E1880C991CAA1CBB1CFA95D1F7882A992AAA2ABB2A840E951EA61EB71EE3967D
:200AE000AEADBFADE39790964D905D906D907C9093974DA65EA66FA678AAA396EEADFFADE4
:200B0000A3974082518262827382D301C20188529746AF47B649080F191F2A1F3B1FD70120
:200B2000C60184279527A627B72788219921AA21BB218C259D25AE25BF25080F191F2A1F10
:200B40003B1FD901C801E7E0880F991FAA1FBB1FEA95D1F7F9E13695279517950795FA9560
:200B6000D1F7082B192B2A2B3B2B080D191D2A1D3B1DE396AEADBFADE39794964D905D90E3
:200B80006D907C90979749AA5AAA6BAA7CAAA596EEADFFADA5974082518262827382D301EC
:200BA000C20181559840AB4BB447C80ED91EEA1EFB1EDB01CA0188259925AA25BB25802381
:200BC0009123A223B32384279527A627B727C80ED91EEA1EFB1ED701C601ECE0880F991F0C
:200BE000AA1FBB1FEA95D1F7F4E1F694E794D794C794FA95D1F7C82AD92AEA2AFB2AC00E18
:200C0000D11EE21EF31EE396AEADBFADE39798964D905D906D907C909B974DAA5EAA6FAACF
:200C200078AEA796EEADFFADA7974082518262827382D301C2018F54944AA109B109480F4B
:200C4000591F6A1F7B1FD501C40180279127A227B3278C219D21AE21BF2188259925AA2508
:200C6000BB25480F591F6A1F7B1FDB01CA01EFE0B695A79597958795EA95D1F7F1E1440FF1
:200C8000551F661F771FFA95D1F7482B592B6A2B7B2B4C0D5D1D6E1D7F1DE396AEADBFAD02
:200CA000E3979C964D905D906D907C909F9749AE5AAE6BAE7CAEA996EEADFFADA9974082B5
:200CC000518262827382D301C20182549842A34AB647880E991EAA1EBB1ED901C8018C25F5
:200CE0009D25AE25BF2584239523A623B72380279127A227B327880E991EAA1EBB1ED501B3
:200D0000C401EAE0B695A79597958795EA95D1F7F6E1880C991CAA1CBB1CFA95D1F7882A68
:200D2000992AAA2ABB2A840E951EA61EB71EE396AEADBFADE397D0964D905D906D907C9066
:200D4000D39721964CAE5DAE6EAE7FAE2197AB96EEADFFADAB974082518262827382FEED49
:200D60004F1AFEEE5F0AFFE66F0AF4E97F0A040D151D261D371D2601370144265526662647
:200D80007726482059206A207B204C245D246E247F24040D151D261D371D2801390187E0E6
:200DA000440C551C661C771C8A95D1F799E136952795179507959A95D1F70429152926297C
:200DC0003729080D191D2A1D3B1DD4964D905D906D907C90D79725964CAE5DAE6EAE7FAE15
:200DE0002597AD96EEADFFADAD974082518262827382FDE64F1AFEE85F0AF7E66F0AF2E038
:200E00007F0AC40CD51CE61CF71C2A013B01482459246A247B24402251226222732244269E
:200E2000552666267726C40CD51CE61CF71C26013701ECE0440C551C661C771CEA95D1F7F0
:200E4000F4E1F694E794D794C794FA95D1F7C428D528E628F728C00ED11EE21EF31ED89649
:200E60004D905D906D907C90DB9729964CAE5DAE6EAE7FAE2997AF96EEADFFADAF974082CC
:200E8000518262827382F2E74F1AFCEB5F0AF6E86F0AF9E57F0A440D551D661D771D240157
:200EA000350140265126622673264C205D206E207F20482459246A247B24440D551D661D8C
:200EC000771D2A013B018FE076946794579447948A95D1F791E1440F551F661F771F9A9573
:200EE000D1F744295529662977294C0D5D1D6E1D7F1DDC964D905D906D907C90DF972D9698
:200F00004CAE5DAE6EAE7FAE2D97E196EEADFFADE1974082518262827382FFED4F1AF7EFE0
:200F20005F0AFBE46F0AF6EB7F0A840C951CA61CB71C280139014C245D246E247F244422C1
:200F40005522662277224026512662267326840C951CA61CB71C24013501EAE076946794FB
:200F600057944794EA95D1F7F6E1880C991CAA1CBB1CFA95D1F784289528A628B728840EA8
:200F8000951EA61EB71E49885A886B887C888EE9481A8AED580A81EE680A89E0780A040DCC
:200FA000151D261D371D2A013B01482459246A247B244C205D206E207F2044265526662664
:200FC0007726040D151D261D371D28013901A5E0440C551C661C771CAA95D1F7BBE136956E
:200FE000279517950795BA95D1F70429152926293729080D191D2A1D3B1D4DA05EA06FA0D8
:2010000078A490EC491A9CE4590A9FEB690A9FE3790AC40CD51CE61CF71C24013501402659
:201020005126622673264422552266227722482459246A247B24C40CD51CE61CF71C260107
:20104000370189E0440C551C661C771C8A95D1F797E1F694E794D794C7949A95D1F7C4280C
:20106000D528E628F728C00ED11EE21EF31E49AC5AAC6BAC7CACAFEA4A1AA5EA5A0AA1EAC3
:201080006A0AA9ED7A0A440D551D661D771D280139014C245D246E247F24482059206A20F4
:2010A0007B204026512662267326440E551E661E771ED301C2014EE0880F991FAA1FBB1F02
:2010C0004A95D1F752E176946794579447945A95D1F7482A592A6A2A7B2A4C0C5D1C6E1C2B
:2010E0007F1C4D855E856F8578894655584369447641840E951EA61EB71EB701A60144256B
:2011000055256625772540235123622373234C255D256E257F25480D591D6A1D7B1DDB014C
:20112000CA01ECE0B695A79597958795EA95D1F7F4E1440F551F661F771FFA95D1F7482B81
:20114000592B6A2B7B2B440D551D661D771D89A09AA0ABA0BCA0B3EA8B1ABFEE9B0AB0EDBB
:20116000AB0AB9E2BB0A080D191D2A1D3B1D5301420184269526A626B7268C209D20AE2094
:20118000BF2084249524A624B724080D191D2A1D3B1D48015901A5E0880C991CAA1CBB1C72
:2011A000AA95D1F7BBE13695279517950795BA95D1F7082919292A293B29040F151F261FF0
:2011C000371F8DA89EA8AFA8B8ACEDEA8E1AEBEE9E0AEBEBAE0AEDEFBE0AC80CD91CEA1C82
:2011E000FB1C4A015B0180269126A226B32684209520A620B72084269526A626B726C80C5B
:20120000D91CEA1CFB1C4601570189E0880C991CAA1CBB1C8A95D1F797E1F694E794D794FF
:20122000C7949A95D1F7C828D928EA28FB28C00ED11EE21EF31E2D968CAC9DACAEACBFAC5F
:201240002D97FFE78F1AF9E19F0AFEE5AF0AF7E2BF0A480C591C6A1C7B1C480159018C2441
:201260009D24AE24BF2484229522A622B72280269126A226B326480C591C6A1C7B1C5301C2
:201280004201EEE0880C991CAA1CBB1CEA95D1F7F2E17694679457944794FA95D1F74828AB
:2012A00059286A287B284C0C5D1C6E1C7F1C8D8C9E8CAF8CB8A088E3881A84E0980A8CE22B
:2012C000A80A88E1B80A480D591D6A1D7B1D4601570184249524A624B72480229122A22289
:2012E000B3228C249D24AE24BF24480D591D6A1D7B1D4A015B01ACE0B694A794979487940B
:20130000AA95D1F7B4E1440F551F661F771FBA95D1F7482959296A297B29440D551D661DC8
:20132000771D89A89AA8ABA8BCA89AE1891A92E3990A9EE1A90A9EEDB90A080D191D2A1DA7
:201340003B1D5301420184269526A626B7268C209D20AE20BF2084249524A624B724080D5F
:20136000191D2A1D3B1D4801590185E0880C991CAA1CBB1C8A95D1F79BE136952795179514
:2013800007959A95D1F7082919292A293B29040F151F261F371F29968CAC9DACAEACBFACA9
:2013A0002997AAE28A1AA8EF9A0AA8ECAA0AACE3BA0AC80CD91CEA1CFB1C4A015B01802634
:2013C0009126A226B32684209520A620B72084269526A626B726C80CD91CEA1CFB1C460184
:2013E0005701E9E0880C991CAA1CBB1CEA95D1F7F7E1F694E794D794C794FA95D1F7C828B5
:20140000D928EA28FB28C00ED11EE21EF31E898C9A8CAB8CBC8CB9E78B1AB2EF9B0ABAE2E7
:20142000AB0ABBE0BB0A480C591C6A1C7B1C480159018C249D24AE24BF2484229522A622C3
:20144000B72280269126A226B326480C591C6A1C7B1C53014201AEE0880C991CAA1CBB1CC4
:20146000AA95D1F7B2E17694679457944794BA95D1F7482859286A287B284C0C5D1C6E1C6F
:201480007F1C8DA49EA4AFA4B8A8E3E18E1AEBEE9E0AE5EAAE0AEAEBBE0A480D591D6A1D28
:2014A0007B1D4601570184249524A624B72480229122A222B3228C249D24AE24BF24480D86
:2014C000591D6A1D7B1D4A015B018CE0B694A794979487948A95D1F794E1440F551F661FF1
:2014E000771F9A95D1F7482959296A297B29440D551D661D771D25968CAC9DACAEACBFAC5A
:201500002597FBEF8F1AF6E19F0AFCE1AF0AF6E5BF0A080D191D2A1D3B1D53014201842697
:201520009526A626B7268C209D20AE20BF2084249524A624B724080D191D2A1D3B1D4801F8
:201540005901E5E0880C991CAA1CBB1CEA95D1F7FBE13695279517950795FA95D1F708290C
:2015600019292A293B29040F151F261F371F8D889E88AF88B88C88E0881A8CE5980A80E15C
:20158000A80A83E0B80AC80CD91CEA1CFB1C4A015B0180269126A226B32684209520A620CA
:2015A000B72084269526A626B726C80CD91CEA1CFB1C46015701A9E0880C991CAA1CBB1C52
:2015C000AA95D1F7B7E1F694E794D794C794BA95D1F7C828D928EA28FB28C00ED11EE21EA7
:2015E000F31E89A49AA4ABA4BCA497E2891A9DEF990A90E9A90A98E9B90A480C591C6A1CB6
:201600007B1C480159018C249D24AE24BF2484229522A622B72280269126A226B326480C1A
:20162000591C6A1C7B1C530142018EE0880C991CAA1CBB1C8A95D1F792E1769467945794E3
:2016400047949A95D1F7482859286A287B284C0C5D1C6E1C7F1C4601570184249524A624D2
:20166000B72421968CAD9DADAEADBFAD21978657934BA54DB247480F591F6A1F7B1FD90164
:20168000C80188219921AA21BB218C259D25AE25BF25480F591F6A1F7B1FDB01CA01ECE0E8
:2016A000B695A79597958795EA95D1F7F4E1440F551F661F771FFA95D1F7482B592B6A2B7A
:2016C0007B2B440D551D661D771D89A19AA1ABA1BCA18E5B964CA540B109080F191F2A1F7A
:2016E0003B1F84269526A626B726080D191D2A1D3B1D48015901A4E0880C991CAA1CBB1C8B
:20170000AA95D1F7BCE13695279517950795BA95D1F7082919292A293B29040F151F261F89
:20172000371F8DA49EA4AFA4B8A8AFE78A1AA9E09A0AAEE8AA0AA8E7BA0AC80CD91CEA1C5A
:20174000FB1C5301420184269526A626B72680269126A226B326C80CD91CEA1CFB1C4601A2
:2017600057018BE0880C991CAA1CBB1C8A95D1F795E1F694E794D794C7949A95D1F7C828B1
:20178000D928EA28FB28C00ED11EE21EF31E89AC9AACABACBCACBEED8B1ABEE99B0AB2E6D7
:2017A000AB0AB2E9BB0A480C591C6A1C7B1C4A015B0180269126A226B3268C249D24AE2446
:2017C000BF24480C591C6A1C7B1CF20123013F014C0C5D1C6E1C7F1C29968CAC9DACAEAC59
:2017E000BFAC2997F4EF8F1AF7EC9F0AFAE1AF0AF2E0BF0A480D591D6A1D7B1D48015901EA
:201800008C249D24AE24BF2484249524A624B724480D591D6A1D7B1D4A015B01E9E0B694F8
:20182000A79497948794EA95D1F7F7E1440F551F661F771FFA95D1F7482959296A297B29A5
:20184000440D551D661D771D89889A88AB88BC888CEB881A85E1980A81E4A80A8BE5B80A9A
:20186000080D191D2A1D3B1D4601570184249524A624B72484269526A626B726080D191D80
:201880002A1D3B1D48015901A4E0880C991CAA1CBB1CAA95D1F7BCE1369527951795079529
:2018A000BA95D1F7082919292A293B29040F151F261F371F8D8C9E8CAF8CB8A097E5891A10
:2018C00090E3990A91E2A90A94EBB90AC80CD91CEA1CFB1C5301420184269526A626B726FF
:2018E00080269126A226B326C80CD91CEA1CFB1C460157018BE0880C991CAA1CBB1C8A95F5
:20190000D1F795E1F694E794D794C7949A95D1F7C828D928EA28FB28C00ED11EE21EF31ED3
:2019200089A49AA4ABA4BCA4A0EA8A1AA4EB9A0AA4E4AA0AA9E0BA0A480C591C6A1C7B1CBD
:201940004A015B0180269126A226B3268C249D24AE24BF24480C591C6A1C7B1CF2012301BF
:201960003F014C0C5D1C6E1C7F1C8DA89EA8AFA8B8ACF0E98F1AF3E49F0AF0E4AF0AF1E497
:20198000BF0A480D591D6A1D7B1D480159018C249D24AE24BF2484249524A624B724840E33
:2019A000951EA61EB71ED501C40149E0B695A795979587954A95D1F757E1880C991CAA1C5A
:2019C000BB1C5A95D1F7882A992AAA2ABB2A840C951CA61CB71C25964CAD5DAD6EAD7FAD70
:2019E00025974A5351486446774D040F151F261F371FB701A60144255525662577254825CF
:201A000059256A257B25040F151F261F371FB901A801E4E0440F551F661F771FEA95D1F7E7
:201A2000FCE13695279517950795FA95D1F7042B152B262B372B080D191D2A1D3B1D4D85C5
:201A40005E856F8578894650584D6E457541C40ED51EE61EF71EB301A201482559256A255B
:201A60007B2540275127622773274C0D5D1D6E1D7F1DDB01CA01EBE0880F991FAA1FBB1F66
:201A8000EA95D1F7F5E17695679557954795FA95D1F7482B592B6A2B7B2B400F511F621F91
:201AA000731FC98CDA8CEB8CFC8C8BE7C81A8FECD80A80E1E80A8BE2F80A4C0C5D1C6E1C0C
:201AC0007F1C75016401C026D126E226F326C426D526E626F7264C0C5D1C6E1C7F1CD201BB
:201AE00023013D01440E551E661E771ECDA0DEA0EFA0F8A4BBEFCB1AB2EEDB0AB7E7EB0AE9
:201B0000BBEFFB0A8C0C9D1CAE1CBF1C68017901C426D526E626F726C424D524E624F72429
:201B20008C0C9D1CAE1CBF1C75016401A9E0F694E794D794C794AA95D1F7B7E1880C991C98
:201B4000AA1CBB1CBA95D1F78C289D28AE28BF28840C951CA61CB71CC9A8DAA8EBA8FCA89B
:201B6000E7ECCE1AEFE2DE0AEBE2EE0AE6E2FE0A0C0D1D1D2E1D3F1D6A017B01C424D5249A
:201B8000E624F724C824D924EA24FB240C0D1D1D2E1D3F1D6801790184E0CC0CDD1CEE1CEE
:201BA000FF1C8A95D1F79CE136952795179507959A95D1F70C291D292E293F29080D191D5B
:201BC0002A1D3B1D2196CCACDDACEEACFFAC2197FBE1CF1AF6E6DF0AF4E2EF0AF9E1FF0A75
:201BE0004C0D5D1D6E1D7F1D73016201C824D924EA24FB24C026D126E226F3264C0D5D1D2D
:201C00006E1D7F1D6A017B01EBE0CC0CDD1CEE1CFF1CEA95D1F7F5E1769567955795479509
:201C2000FA95D1F74C295D296E297F29400F511F621F731F2D96CCACDDACEEACFFAC2D9774
:201C400088E0C81A83E8D80A8DE5E80A80EEF80A4C0C5D1C6E1C7F1C75016401C026D1266B
:201C6000E226F326C426D526E626F7264C0C5D1C6E1C7F1CD20123013D01440E551E661EC1
:201C8000771ECD88DE88EF88F88CBBE9CB1AB9EADB0AB3E5EB0ABBE3FB0A8C0C9D1CAE1C9D
:201CA000BF1C68017901C426D526E626F726C424D524E624F7248C0C9D1CAE1CBF1C7501E6
:201CC0006401A9E0F694E794D794C794AA95D1F7B7E1880C991CAA1CBB1CBA95D1F78C28FB
:201CE0009D28AE28BF28840C951CA61CB71CCD84DE84EF84F888ECEBCE1AEDEDDE0AE6ED92
:201D0000EE0AEBE0FE0A0C0D1D1D2E1D3F1D6A017B01C094D094E094F094C828D928EA2864
:201D2000FB28C424D524E624F7240C0D1D1D2E1D3F1D6801790186E0CC0CDD1CEE1CFF1C41
:201D40008A95D1F79AE136952795179507959A95D1F70C291D292E293F29080D191D2A1D8F
:201D60003B1DC9A4DAA4EBA4FCA4F9E6CF1AD108F5EDEF0AFCEBFF0A4C0D5D1D6E1D7F1D8B
:201D800073016201C094D094E094F094C02AD12AE22AF32AC824D924EA24FB244C0D5D1DC5
:201DA0006E1D7F1D6A017B01EAE0CC0CDD1CEE1CFF1CEA95D1F7F6E1769567955795479568
:201DC000FA95D1F74C295D296E297F29400F511F621F731F2996CCACDDACEEACFFAC2997DB
:201DE00089E5C81A8CEDD80A8BE6E80A84E5F80A4C0C5D1C6E1C7F1C75016401C094D094E1
:201E0000E094F094C42AD52AE62AF72AC026D126E226F3264C0C5D1C6E1C7F1C73016201E1
:201E2000AFE0CC0CDD1CEE1CFF1CAA95D1F7B1E17694679457944794BA95D1F74C285D28A9
:201E40006E287F28440E551E661E771EC9A0DAA0EBA0FCA097ECC91A9FE5D90A9CE6E90A1B
:201E600093E0F90A8C0C9D1CAE1CBF1C68017901C094D094E094F094C428D528E628F7284D
:201E8000C426D526E626F7268C0C9D1CAE1CBF1C750164018BE0F694E794D794C7948A950E
:201EA000D1F795E1880C991CAA1CBB1C9A95D1F78C289D28AE28BF28840C951CA61CB71CFB
:201EC0002196CCACDDACEEACFFAC2197ADE3CA1AA6EADA0AA4EAEA0AAAE9FA0A0C0D1D1DF9
:201EE0002E1D3F1D6A017B01C094D094E094F094C828D928EA28FB28C424D524E624F72478
:201F00000C0D1D1D2E1D3F1D68017901E6E0CC0CDD1CEE1CFF1CEA95D1F7FAE1369527957F
:201F200017950795FA95D1F70C291D292E293F29080D191D2A1D3B1DC98CDA8CEB8CFC8C24
:201F4000BEE6CB1AB3E3DB0AB3EFEB0AB0E7FB0A4C0D5D1D6E1D7F1D73016201C094D094C1
:201F6000E094F094C02AD12AE22AF32AC824D924EA24FB244C0D5D1D6E1D7F1D6A017B0164
:201F8000AAE0CC0CDD1CEE1CFF1CAA95D1F7B6E17695679557954795BA95D1F74C295D2942
:201FA0006E297F29400F511F621F731FCDA8DEA8EFA8F8ACE3E8CE1AEBE0DE0AE0E1EE0ABB
:201FC000F1084C0C5D1C6E1C7F1C75016401C094D094E094F094C42AD52AE62AF72AC02683
:201FE000D126E226F3264C0C5D1C6E1C7F1C730162018FE0CC0CDD1CEE1CFF1C8A95D1F7B0
:2020000091E176946794579447949A95D1F74C285D286E287F28440E551E661E771EC98827
:20202000DA88EB88FC88FFE2CF1AF2EADF0AFBE7EF0AFAE7FF0A8C0C9D1CAE1CBF1C680194
:202040007901C094D094E094F094C428D528E628F728C426D526E626F7268C0C9D1CAE1C17
:20206000BF1C75016401EBE0F694E794D794C794EA95D1F7F5E1880C991CAA1CBB1CFA9582
:20208000D1F78C289D28AE28BF28840C951CA61CB71CCDA4DEA4EFA4F8A881EBC81A81E88F
:2020A000D80A87E5E80A80E9F80A0C0D1D1D2E1D3F1D6A017B01C094D094E094F094C828F4
:2020C000D928EA28FB28C424D524E624F7240C0D1D1D2E1D3F1D68017901A6E0CC0CDD1C90
:2020E000EE1CFF1CAA95D1F7BAE13695279517950795BA95D1F70C291D292E293F29080DE4
:20210000191D2A1D3B1D2D968CAD9DADAEADBFAD2D9780529941A34DB140480F591F6A1F34
:202120007B1FD301C20180959095A095B095802B912BA22BB32B88259925AA25BB25480F37
:20214000591F6A1F7B1FDB01CA01EAE0880F991FAA1FBB1FEA95D1F7F6E176956795579570
:202160004795FA95D1F7482B592B6A2B7B2B400F511F621F731F8DA19EA1AFA1B8A58C5E24
:202180009C4BAE4FBC45480E591E6A1E7B1ED501C40180959095A095B095842B952BA62BDD
:2021A000B72B80279127A227B327480E591E6A1E7B1ED301C201EFE0880F991FAA1FBB1FF5
:2021C000EA95D1F7F1E17694679457944794FA95D1F7482A592A6A2A7B2A440E551E661E4D
:2021E000771E25968CAD9DADAEADBFAD25978F559E4EA74FB14B880E991EAA1EBB1ED901FF
:20220000C80180959095A095B09584299529A629B72984279527A627B727880E991EAA1E00
:20222000BB1ED501C401EBE0B695A79597958795EA95D1F7F5E1880C991CAA1CBB1CFA95FE
:20224000D1F7882A992AAA2ABB2A840C951CA61CB71C8D8D9E8DAF8DB8A18E579148AC4A24
:20226000B840080F191F2A1F3B1FDB01CA0180959095A095B09588299929AA29BB29842546
:202280009525A625B725080F191F2A1F3B1FD901C801E6E0880F991FAA1FBB1FEA95D1F749
:2022A000FAE13695279517950795FA95D1F7082B192B2A2B3B2B080D191D2A1D3B1D89ADCB
:2022C0009AADABADBCAD8B5C9D40A54CB244480F591F6A1F7B1FD301C20180959095A09553
:2022E000B095802B912BA22BB32B88259925AA25BB25480F591F6A1F7B1FDB01CA01EAE00A
:20230000880F991FAA1FBB1FEA95D1F7F6E17695679557954795FA95D1F7482B592B6A2BFB
:202320007B2B400F511F621F731F8D899E89AF89B88D85549D42A842B54D480E591E6A1E72
:202340007B1ED501C40180959095A095B095842B952BA62BB72B80279127A227B327480E1B
:20236000591E6A1E7B1ED301C201EFE0880F991FAA1FBB1FEA95D1F7F1E176946794579464
:202380004794FA95D1F7482A592A6A2A7B2A440E551E661E771E89A99AA9ABA9BCA98F56EC
:2023A0009C42A947B441880E991EAA1EBB1ED901C80180959095A095B09584299529A629DB
:2023C000B72984279527A627B727880E991EAA1EBB1ED501C401EBE0B695A79597958795E8
:2023E000EA95D1F7F5E1880C991CAA1CBB1CFA95D1F7882A992AAA2ABB2A61968CAD9DADDB
:20240000AEADBFAD6197800F911FA21FB31F61968CAF9DAFAEAFBFAF6197840C951CA61CE7
:20242000B71C89819A81AB81BC81880D991DAA1DBB1D89839A83AB83BC838D809E80AF8061
:20244000B884840C951CA61CB71C8D829E82AF82B88689859A85AB85BC85840F951FA61F22
:20246000B71F89879A87AB87BC87E396AEADBFADE397A05CBF4FE396BFAFAEAFE397B0E4CA
:202480002B1A310811F00C94F10261964CAC5DAC6EAC7FAC6197E596AEADBFADE597189689
:2024A0004D925D926D927C921B9749805A806B807C801C964D925D926D927C921F97FD01C4
:2024C000808A918AA28AB38A49845A846B847C8454964D925D926D927C925797E3968EAD6D
:2024E0009FADE397CC58DF4F0FB6F894DEBF0FBECDBFDF91CF911F910F91FF90EF90DF90E0
:20250000CF90BF90AF909F908F907F906F905F904F903F902F90089582E491E00E945C01A3
:20252000892BD1F382E491E00E943A01089595B180E2892785B9089510926F00809100017C
:2025400090910101A0910201B09103010097A105B10509F463C063E0880F991FAA1FBB1F97
:202560006A95D1F7009721E0A207B10520F421E02093400142C0009728E0A207B10558F448
:2025800022E02093400153E0B695A795979587955A95D1F732C0009720E4A207B10558F454
:2025A00023E02093400146E0B695A795979587954A95D1F722C00097A10521E0B20740F47B
:2025C00024E020934001892F9A2FAB2FBB2715C00097A10524E0B20758F425E020934001B2
:2025E0002AE0B695A795979587952A95D1F705C085E0809340018FEF9FEF90933F0180937B
:202600003E0180913E0190913F0190938700809386008091400180618093810087E992E1DD
:2026200090933D0180933C0181E080936F0008958DE291E00C94C2146AE070E080E090E0A9
:202640000E942F1582E491E00E945C01892B29F082E491E00E943A01EFCF08950E94381AEE
:202660001F920F920FB60F9211242F933F934F935F936F937F938F939F93AF93BF93EF9387
:20268000FF9382E491E00E947201FF91EF91BF91AF919F918F917F916F915F914F913F911C
:2026A0002F910F900FBE0F901F9018951F920F920FB60F9211242F938F939F93EF93FF93DC
:2026C000E0915201F09153018081E0915801F091590182FD12C0908180915B018F5F8F73FC
:2026E00020915C01821751F0E0915B01F0E0EE5BFE4F958F80935B0101C08081FF91EF915A
:202700009F918F912F910F900FBE0F901F9018951F920F920FB60F9211242F933F934F93DF
:202720005F936F937F938F939F93AF93BF93EF93FF93E0913C01F0913D010995FF91EF917C
:20274000BF91AF919F918F917F916F915F914F913F912F910F900FBE0F901F9018953FB7CC
:20276000F8948091E0019091E101A091E201B091E30126B5A89B05C02F3F19F00196A11DF0
:20278000B11D3FBFBA2FA92F982F8827820F911DA11DB11DBC01CD0142E0660F771F881F0C
:2027A000991F4A95D1F708952FB7F8948091E4019091E501A091E601B091E7012FBF80936C
:2027C0004A0190934B01A0934C01B0934D0182E491E00E944E0197FF26C02FB7F894809167
:2027E000E4019091E501A091E601B091E7012FBF40914A0150914B0160914C0170914D01E8
:20280000841B950BA60BB70B4091460150914701609148017091490184179507A607B7079E
:20282000B0F28FEF9FEF0895009769F0FC0101900020E9F73197AF01481B590BBC0182E46D
:2028400091E00C94FD0080E090E008950F931F93CF93DF938C01C0E0D0E0F801EC0FFD1FE8
:202860006491662341F082E491E00E949401892B11F02196F2CFCE01DF91CF911F910F917F
:202880000895CF93DF930E942614EC0185E391E00E9414148C0F9D1FDF91CF9108958F9276
:2028A0009F92AF92BF92CF92DF92EF92FF920F931F93CF93DF93CDB7DEB7A1970FB6F894A7
:2028C000DEBF0FBECDBF6B017C0197FF2BC06DE282E491E00E9494018C0122273327A90161
:2028E0002C193D094E095F0919A2CE0181967C019AE0892E912CA12CB12CCA01B901A501AD
:2029000094010E94EF18605DF70162937F01211531054105510589F7CF010E941414800F9E
:20292000911F1DC09B01AC0119A28E010F5D1F4F8AE0C82ED12CE12CF12CCA01B901A701E9
:2029400096010E94EF18605DF80162938F01211531054105510589F7CF010E941414A196A3
:202960000FB6F894DEBF0FBECDBFDF91CF911F910F91FF90EF90DF90CF90BF90AF909F9057
:202980008F900895CF93DF930E941414EC0185E391E00E9414148C0F9D1FDF91CF91089589
:2029A000CF92DF92EF92FF92CF930E94D413FC0197FD0BC08D32910561F0C0970A9748F016
:2029C00082E491E00E943A01F0CF60E070E0CB0140C0C12CD12C7601C0E0E130F10501F12E
:2029E000ED32F105E1F0CF01C0970A97C8F4AAE0B0E0A70196010E94D5186F01FF0FEE0811
:202A0000FF08DC01CB018C0D9D1DAE1DBF1D6C017D0120E3C21AD108E108F10801C0C1E025
:202A200082E491E00E943A010E94D413FC01C0970A9798F2E130F10581F2CC2341F06627B3
:202A40007727CB016C197D098E099F0902C0C701B601CF91FF90EF90DF90CF9008958F9287
:202A60009F92AF92BF92CF92DF92EF92FF926B017C010E94AF134B015C01C114D104E1042A
:202A8000F104F1F00E94AF13DC01CB0188199909AA09BB09883E9340A105B10570F321E040
:202AA000C21AD108E108F10888EE880E83E0981EA11CB11CC114D104E104F10419F7DDCF90
:202AC000FF90EF90DF90CF90BF90AF909F908F9008951F920F920FB60F9211242F933F9320
:202AE0008F939F93AF93BF938091E4019091E501A091E601B091E7013091DF0123E0230FDA
:202B00002D3720F40196A11DB11D05C026E8230F0296A11DB11D2093DF018093E401909343
:202B2000E501A093E601B093E7018091E0019091E101A091E201B091E3010196A11DB11D19
:202B40008093E0019093E101A093E201B093E301BF91AF919F918F913F912F910F900FBE63
:202B60000F901F901895CF93DF93CDB7DEB7CC5BD1090FB6F894DEBF0FBECDBF789484B5E0
:202B8000826084BD84B5816084BD85B5826085BD85B5816085BD80916E00816080936E001B
:202BA00010928100809181008260809381008091810081608093810080918000816080935E
:202BC00080008091B10084608093B1008091B00081608093B00080917A00846080937A00AA
:202BE00080917A00826080937A0080917A00816080937A0080917A00806880937A00109240
:202C0000C100259A249885B1806385B9E0915201F091530182E08083E0914E01F0914F0192
:202C20001082E0915001F09151018FEC808310925A01E0915601F091570186E08083E09177
:202C40005401F0915501808180618083E0915401F0915501808188608083E0915401F09193
:202C60005501808180688083E0915401F091550180818F7D808380E180938100109280004E
:202C800084E08093400182E19AE790933F0180933E01909387008093860084E180938100A7
:202CA0000E949C121C993CC05E0125E0A20EB11CECEC9E2E83E890E00E9441148E010F5FBF
:202CC0001F4F78010E948C12D7018D937D01AA15BB05C1F70E941C137EE9C72E70E0D72E9E
:202CE000FF24F394F6018491FF2069F08925D8019C91981307C06FE070E080E090E00E946F
:202D00002F1501C0F12CBFEFCB1ADB0A0F5F1F4FA016B10639F7FF2069F281E08093410170
:202D20000E941C1385EB90E00E94411480914101882321F082EA90E00E9441144E01E9E1F0
:202D40008E0E911C7E01F9E9EF0EF11C1E0129E5220E311C82E491E00E945C01892B09F48E
:202D6000E4C182E491E00E943A01843609F4CEC12CF48F3351F08336A9F0ECCF8C3609F4C5
:202D800077C1833709F497C1E5CF8AEF90E00E94411488ED90E00E9441148DEC90E00E94F1
:202DA0004114D8CF80914101811103C00E941C13AAC10E94D0142B013C0184E2D7011D9257
:202DC0008A95E9F785E691E00E9441140E941C1387016701B3E2CB0ED11C58010E948C126C
:202DE000F80181938F018A3019F4D5011C9203C0EC15FD0591F70E941C13F7018081811141
:202E000009C08FE291E00E9426146DEA73E080E090E073C180E190E00E9417198C0181E0EC
:202E200093E2A5E4B7E689879A87AB87BC8789E89BEAADECBFEE8D879E87AF87B88B8EEFE6
:202E40009CEDAAEBB8E9898B9A8BAB8BBC8B86E794E5A2E3B0E18D8B9E8BAF8BB88F1982A4
:202E60001A821B821C821D821E821F82188680E4D101E82F1D92EA95E9F7D4011D928A95FF
:202E8000E9F7F70101900020E9F731976F01CE18DF08C601A0E0B0E089839A83AB83BC8357
:202EA000B0E4CB16D10458F0A601407CB701CE0101960E940D02EFE3CE22DD2401C0C70102
:202EC000A601BC01C4010E943D1A49815A816B817C814F73552766277727DB01CA0101969B
:202EE000A11DB11DF401E40FF51F20E8208340E450E060E070E0481B590B6A0B7B0B483081
:202F0000510561057105C8F4489660E070E021E030E02C0F3D1F820F931F0E94461A40E444
:202F200050E0B401CE0101960E940D0240E450E060E070E080E090E0DC0148505109489634
:202F400060E070E0A1E0B0E0AC0FBD1F8A0F9B1F0E94461A89819A81AB81BC8163E0880F7C
:202F6000991FAA1FBB1F6A95D1F789839A83AB83BC8362968FAF629763969FAF639764962F
:202F8000AFAF64976596BFAF65973D812E819F81888566963FAF669767962FAF679768961B
:202FA0009FAF689769968FAF699740E450E0B401CE0101960E940D0239852A859B858C85C9
:202FC000F80130832183928383833D852E859F858889348325839683878339892A899B89C1
:202FE0008C8930872187928783873D892E899F89888D348725879687878781E290E00E9479
:2030000017196C01C801F6019601205E3F4FDC014D91CD01A42FB0E054E0B595A7955A951B
:20302000E1F7A45EBE4F5C9150834F70A42FB0E0A45EBE4F4C91418332962E173F0739F794
:20304000F60110A2C8010E94AF1964E471E0C6010E94C518892B09F056C04092000150923D
:20306000010160920201709203010E949C1272CE61E070E080E090E00E944F1488E391E081
:203080000E941414E6E8F1E065917491CE0101960E94CE18CE0101960E94C21462E070E06E
:2030A00080E090E00E944F1488E391E00E941414E8E8F1E00FC00E94D01420914101222367
:2030C00011F1FB013197E230F10578F4EE0FFF1FE156FE4F65917491CE0101960E94CE182E
:2030E000CE0101960E94C21435CE8AE891E00E94261465E173E080E090E00E944F1485E35A
:2031000091E00E9414140E94181324CE609100017091010180910201909103010E944F1482
:2031200085E391E00E94141415CE0E9403020ACEE2E4F1E01382128288EE93E0A0E0B0E0D1
:2031400084839583A683B7838EE091E09183808385EC90E09587848784EC90E097878687E4
:2031600080EC90E0918B808B81EC90E0938B828B82EC90E0958B848B86EC90E0978B868B22
:20318000118E128E138E148E0895FB01DC018D91059080190110D9F3990B0895FB01DC01F4
:2031A00005900D920020E1F708950E94E018A59F900DB49F900DA49F800D911D112408958B
:2031C000A29FB001B39FC001A39F700D811D1124911DB29F700D811D1124911D0895A1E23B
:2031E0001A2EAA1BBB1BFD010DC0AA1FBB1FEE1FFF1FA217B307E407F50720F0A21BB30B6E
:20320000E40BF50B661F771F881F991F1A9469F760957095809590959B01AC01BD01CF012C
:203220000895EE0FFF1F0590F491E02D09940F931F93CF93DF938230910510F482E090E0CC
:20324000E091EA01F091EB0120E030E0A0E0B0E0309719F14081518102811381481759074B
:20326000C8F08417950769F4109731F012960C93129713961C9327C00093EA011093EB01FE
:2032800022C02115310519F04217530718F49A01BD01EF01DF01F801DBCF21153105F9F0F7
:2032A000281B390B2430310580F48A819B816115710521F0FB019383828304C09093EB017B
:2032C0008093EA01FE01329644C0FE01E20FF31F8193919322503109398328833AC020912D
:2032E000E8013091E901232B41F420910601309107013093E9012093E80120910401309176
:2033000005012115310541F42DB73EB74091080150910901241B350BE091E801F091E90124
:20332000E217F307A0F42E1B3F0B2817390778F0AC014E5F5F4F2417350748F04E0F5F1FFA
:203340005093E9014093E8018193919302C0E0E0F0E0CF01DF91CF911F910F910895CF936B
:20336000DF93009709F481C0FC01329713821282A091EA01B091EB01109781F4208131815F
:20338000820F931F2091E8013091E9012817390751F5F093E901E093E80167C0ED0120E002
:2033A00030E0CE17DF0740F44A815B819E0141155105F1F0EA01F5CFD383C283408151814E
:2033C000840F951FC817D90759F488819981840F951F0296918380838A819B81938382833F
:2033E0002115310529F4F093EB01E093EA013DC0E901FB83EA8349915991C40FD51FEC1717
:20340000FD0761F480819181840F951F0296E90199838883828193819B838A83E0E0F0E07E
:2034200012968D919C911397009719F0FD01DC01F7CF8D919C9111979D012E5F3F4F820F71
:20344000931F2091E8013091E9012817390769F4309729F41092EB011092EA0102C0138243
:203460001282B093E901A093E801DF91CF91089581E090E0F8940C944D1AFB01DC0102C003
:2034800001900D9241505040D8F70895DC0101C06D9341505040E0F70895F894FFCF20A121
:2034A00007000000EC018000000000009401FD002B01E1015C013A014E01303132333435E2
:2034C000363738396162636465660044656E6965642E000D0A003A200000FFFFFFFFFFFFD7
:2034E000FFFFFFFFFFFFFFFFFFFFFFFFFFFFFFFFFFFFFFFFFFFFFFFFFFFFFFFFFFFFFFFFEC
:20350000FFFFFFFFFFFFFFFFFFFFFFFFFFFFFFFFFFFFFFFFFFFFFFFFFFFFFFFFFFFFFFFFCB
:20352000FFFFFFFFFFFFFFFFFFFFFFFFFFFFFFFFFFFFFFFFFFFFFFFFFFFFFFFFFFFFFFFFAB
:20354000FFFFFFFFFFFFFFFFFFFFFFFFFFFFFFFFFFFFFFFFFFFFFFFFFFFFFFFFFFFFFFFF8B
:207E0000112484B714BE81FFF0D085E08093810082E08093C00088E18093C10086E08093FC
:207E2000C20080E18093C4008EE0C9D0259A86E020E33CEF91E0309385002093840096BBAD
:207E4000B09BFECF1D9AA8958150A9F7CC24DD2488248394B5E0AB2EA1E19A2EF3E0BF2E79
:207E6000A2D0813461F49FD0082FAFD0023811F0013811F484E001C083E08DD089C0823404
:207E800011F484E103C0853419F485E0A6D080C0853579F488D0E82EFF2485D0082F10E0A0
:207EA000102F00270E291F29000F111F8ED068016FC0863521F484E090D080E0DECF84364D
:207EC00009F040C070D06FD0082F6DD080E0C81680E7D80618F4F601B7BEE895C0E0D1E0ED
:207EE00062D089930C17E1F7F0E0CF16F0E7DF0618F0F601B7BEE89568D007B600FCFDCF1A
:207F0000A601A0E0B1E02C9130E011968C91119790E0982F8827822B932B1296FA010C016F
:207F200087BEE89511244E5F5F4FF1E0A038BF0751F7F601A7BEE89507B600FCFDCF97BE85
:207F4000E89526C08437B1F42ED02DD0F82E2BD03CD0F601EF2C8F010F5F1F4F84911BD0B8
:207F6000EA94F801C1F70894C11CD11CFA94CF0CD11C0EC0853739F428D08EE10CD085E9AE
:207F80000AD08FE07ACF813511F488E018D01DD080E101D065CF982F8091C00085FFFCCF0A
:207FA0009093C60008958091C00087FFFCCF8091C00084FD01C0A8958091C6000895E0E68F
:207FC000F0E098E1908380830895EDDF803219F088E0F5DFFFCF84E1DECF1F93182FE3DF47
:207FE0001150E9F7F2DF1F91089580E0E8DFEE27FF270994FFFFFFFFFFFFFFFFFFFF040425
:00000001FF
